:03000000020006F5
:20005F00750879750901750A80750B8D750C01750D80750E9D750F017510807511A975121C
:10007F00017513807514C375150175168002000381
:0300030002008F69
:20008F00AE82AF83EE2508FBEF3509FCAD0A8B828C838DF0120127FB7D00EE250BF9EF3573
:2000AF000CFAAC0D89828A838CF01201277C002BF9EC3DFCEE250EFAEF350FFBAD108A82CD
:2000CF008B838DF01201277D0029FAED3CFDEE2447F582EF3401F583E4937B002AFCEB3DDA
:2000EF00FBEE2511F9EF3512FAAD1389828A838DF01201277D002CFCED3BFBEE2514FEEF3E
:18010F003515FFAD168E828F838DF01201277F002CF582EF3BF583220D
:20014700494E464F3A636F6D70696C65725F76657273696F6E5B30303030303030342E3035
:20016700303030303030342E30303030303030305D00494E464F3A636F6D70696C65725BFD
:20018700534443435D00494E464F3A706C6174666F726D5B5D00494E464F3A617263685BFC
:2001A7005D00494E464F3A7374616E646172645F64656661756C745B31315D00494E464F9A
:1901C7003A657874656E73696F6E735F64656661756C745B4F46465D00BE
:06003500E478FFF6D8FD9F
:200013007900E94400601B7A009001E0780175A000E493F2A308B8000205A0D9F4DAF275B2
:02003300A0FF2C
:20003B007800E84400600A790175A000E4F309D8FC7800E84400600C7900900001E4F0A3C3
:04005B00D8FCD9FAFA
:0D000600758119120143E5826003020003B9
:1C01270020F71430F6148883A88220F507E6A88375830022E280F7E49322E022E7
:04014300758200229F
:00000001FF
